{"contracts/Voting.sol":{"Voting":{"abi":[{"inputs":[{"internalType":"string[]","name":"_candidateNames","type":"string[]"},{"internalType":"uint256","name":"_durationInMinutes","type":"uint256"}],"stateMutability":"nonpayable","type":"constructor"},{"inputs":[{"internalType":"string","name":"_name","type":"string"}],"name":"addCandidate","outputs":[],"stateMutability":"nonpayable","type":"function"},{"inputs":[{"internalType":"uint256","name":"","type":"uint256"}],"name":"candidates","outputs":[{"internalType":"string","name":"name","type":"string"},{"internalType":"uint256","name":"voteCount","type":"uint256"}],"stateMutability":"view","type":"function"},{"inputs":[],"name":"getAllVotesOfCandiates","outputs":[{"components":[{"internalType":"string","name":"name","type":"string"},{"internalType":"uint256","name":"voteCount","type":"uint256"}],"internalType":"struct Voting.Candidate[]","name":"","type":"tuple[]"}],"stateMutability":"view","type":"function"},{"inputs":[],"name":"getRemainingTime","outputs":[{"internalType":"uint256","name":"","type":"uint256"}],"stateMutability":"view","type":"function"},{"inputs":[],"name":"getVotingStatus","outputs":[{"internalType":"bool","name":"","type":"bool"}],"stateMutability":"view","type":"function"},{"inputs":[{"internalType":"uint256","name":"_candidateIndex","type":"uint256"}],"name":"vote","outputs":[],"stateMutability":"nonpayable","type":"function"},{"inputs":[{"internalType":"address","name":"","type":"address"}],"name":"voters","outputs":[{"internalType":"bool","name":"","type":"bool"}],"stateMutability":"view","type":"function"},{"inputs":[],"name":"votingEnd","outputs":[{"internalType":"uint256","name":"","type":"uint256"}],"stateMutability":"view","type":"function"},{"inputs":[],"name":"votingStart","outputs":[{"internalType":"uint256","name":"","type":"uint256"}],"stateMutability":"view","type":"function"}],"evm":{"bytecode":{"linkReferences":{},"object":"60806040523480156200001157600080fd5b506040516200198738038062001987833981810160405281019062000037919062000419565b60005b8251811015620000dc57600060405180604001604052808584815181106200006757620000666200047f565b5b60200260200101518152602001600081525090806001815401808255809150506001900390600052602060002090600202016000909190919091506000820151816000019081620000b99190620006ef565b506020820151816001015550508080620000d39062000805565b9150506200003a565b5033600160006101000a81548173ffffffffffffffffffffffffffffffffffffffff021916908373ffffffffffffffffffffffffffffffffffffffff16021790555042600381905550603c8162000134919062000852565b426200014191906200089d565b6004819055505050620008d8565b6000604051905090565b600080fd5b600080fd5b600080fd5b6000601f19601f8301169050919050565b7f4e487b7100000000000000000000000000000000000000000000000000000000600052604160045260246000fd5b620001b38262000168565b810181811067ffffffffffffffff82111715620001d557620001d462000179565b5b80604052505050565b6000620001ea6200014f565b9050620001f88282620001a8565b919050565b600067ffffffffffffffff8211156200021b576200021a62000179565b5b602082029050602081019050919050565b600080fd5b600080fd5b600067ffffffffffffffff82111562000254576200025362000179565b5b6200025f8262000168565b9050602081019050919050565b60005b838110156200028c5780820151818401526020810190506200026f565b60008484015250505050565b6000620002af620002a98462000236565b620001de565b905082815260208101848484011115620002ce57620002cd62000231565b5b620002db8482856200026c565b509392505050565b600082601f830112620002fb57620002fa62000163565b5b81516200030d84826020860162000298565b91505092915050565b60006200032d6200032784620001fd565b620001de565b905080838252602082019050602084028301858111156200035357620003526200022c565b5b835b81811015620003a157805167ffffffffffffffff8111156200037c576200037b62000163565b5b8086016200038b8982620002e3565b8552602085019450505060208101905062000355565b5050509392505050565b600082601f830112620003c357620003c262000163565b5b8151620003d584826020860162000316565b91505092915050565b6000819050919050565b620003f381620003de565b8114620003ff57600080fd5b50565b6000815190506200041381620003e8565b92915050565b6000806040838503121562000433576200043262000159565b5b600083015167ffffffffffffffff8111156200045457620004536200015e565b5b6200046285828601620003ab565b9250506020620004758582860162000402565b9150509250929050565b7f4e487b7100000000000000000000000000000000000000000000000000000000600052603260045260246000fd5b600081519050919050565b7f4e487b7100000000000000000000000000000000000000000000000000000000600052602260045260246000fd5b600060028204905060018216806200050157607f821691505b602082108103620005175762000516620004b9565b5b50919050565b60008190508160005260206000209050919050565b60006020601f8301049050919050565b600082821b905092915050565b600060088302620005817fffffffffffffffffffffffffffffffffffffffffffffffffffffffffffffffff8262000542565b6200058d868362000542565b95508019841693508086168417925050509392505050565b6000819050919050565b6000620005d0620005ca620005c484620003de565b620005a5565b620003de565b9050919050565b6000819050919050565b620005ec83620005af565b62000604620005fb82620005d7565b8484546200054f565b825550505050565b600090565b6200061b6200060c565b62000628818484620005e1565b505050565b5b8181101562000650576200064460008262000611565b6001810190506200062e565b5050565b601f8211156200069f5762000669816200051d565b620006748462000532565b8101602085101562000684578190505b6200069c620006938562000532565b8301826200062d565b50505b505050565b600082821c905092915050565b6000620006c460001984600802620006a4565b1980831691505092915050565b6000620006df8383620006b1565b9150826002028217905092915050565b620006fa82620004ae565b67ffffffffffffffff81111562000716576200071562000179565b5b620007228254620004e8565b6200072f82828562000654565b600060209050601f83116001811462000767576000841562000752578287015190505b6200075e8582620006d1565b865550620007ce565b601f19841662000777866200051d565b60005b82811015620007a1578489015182556001820191506020850194506020810190506200077a565b86831015620007c15784890151620007bd601f891682620006b1565b8355505b6001600288020188555050505b505050505050565b7f4e487b7100000000000000000000000000000000000000000000000000000000600052601160045260246000fd5b60006200081282620003de565b91507fffffffffffffffffffffffffffffffffffffffffffffffffffffffffffffffff8203620008475762000846620007d6565b5b600182019050919050565b60006200085f82620003de565b91506200086c83620003de565b92508282026200087c81620003de565b91508282048414831517620008965762000895620007d6565b5b5092915050565b6000620008aa82620003de565b9150620008b783620003de565b9250828201905080821115620008d257620008d1620007d6565b5b92915050565b61109f80620008e86000396000f3fe608060405234801561001057600080fd5b50600436106100935760003560e01c80634d6bda5f116100665780634d6bda5f1461011f578063581c281c1461013d57806385a386351461015b578063a3ec138d14610179578063efb98bcf146101a957610093565b80630121b93f14610098578063101158af146100b45780633477ee2e146100d2578063462e91ec14610103575b600080fd5b6100b260048036038101906100ad919061069d565b6101c7565b005b6100bc610329565b6040516100c991906106d9565b60405180910390f35b6100ec60048036038101906100e7919061069d565b61032f565b6040516100fa929190610784565b60405180910390f35b61011d600480360381019061011891906108e9565b6103eb565b005b6101276104ab565b6040516101349190610a8a565b60405180910390f35b6101456105a6565b6040516101529190610ac7565b60405180910390f35b6101636105c0565b60405161017091906106d9565b60405180910390f35b610193600480360381019061018e9190610b40565b6105c6565b6040516101a09190610ac7565b60405180910390f35b6101b16105e6565b6040516101be91906106d9565b60405180910390f35b600260003373ffffffffffffffffffffffffffffffffffffffff1673ffffffffffffffffffffffffffffffffffffffff16815260200190815260200160002060009054906101000a900460ff1615610254576040517f08c379a000000000000000000000000000000000000000000000000000000000815260040161024b90610bb9565b60405180910390fd5b600080549050811061029b576040517f08c379a000000000000000000000000000000000000000000000000000000000815260040161029290610c25565b60405180910390fd5b600081815481106102af576102ae610c45565b5b906000526020600020906002020160010160008154809291906102d190610ca3565b919050555060011515600260003373ffffffffffffffffffffffffffffffffffffffff1673ffffffffffffffffffffffffffffffffffffffff16815260200190815260200160002060009054906101000a9050505050565b60035481565b6000818154811061033f57600080fd5b906000526020600020906002020160009150905080600001805461036290610d1a565b80601f016020809104026020016040519081016040528092919081815260200182805461038e90610d1a565b80156103db5780601f106103b0576101008083540402835291602001916103db565b820191906000526020600020905b8154815290600101906020018083116103be57829003601f168201915b5050505050908060010154905082565b600160009054906101000a900473ffffffffffffffffffffffffffffffffffffffff1673ffffffffffffffffffffffffffffffffffffffff163373ffffffffffffffffffffffffffffffffffffffff161461044557600080fd5b6000604051806040016040528083815260200160008152509080600181540180825580915050600190039060005260206000209060020201600090919091909150600082015181600001908161049b9190610ef7565b5060208201518160010155505050565b60606000805480602002602001604051908101604052809291908181526020016000905b8282101561059d578382906000526020600020906002020160405180604001604052908160008201805461050290610d1a565b80601f016020809104026020016040519081016040528092919081815260200182805461052e90610d1a565b801561057b5780601f106105505761010080835404028352916020019161057b565b820191906000526020600020905b81548152906001019060200180831161055e57829003601f168201915b50505050508152602001600182015481525050815260200190600101906104cf565b50505050905090565b600060035442101580156105bb575060045442105b905090565b60045481565b60026020528060005260406000206000915054906101000a900460ff1681565b600060035442101561062d576040517f08c379a000000000000000000000000000000000000000000000000000000000815260040161062490611015565b60405180910390fd5b600454421061063f5760009050610650565b4260045461064d9190611035565b90505b90565b6000604051905090565b600080fd5b600080fd5b6000819050919050565b61067a81610667565b811461068557600080fd5b50565b60008135905061069781610671565b92915050565b6000602082840312156106b3576106b261065d565b5b60006106c184828501610688565b91505092915050565b6106d381610667565b82525050565b60006020820190506106ee60008301846106ca565b92915050565b600081519050919050565b600082825260208201905092915050565b60005b8381101561072e578082015181840152602081019050610713565b60008484015250505050565b6000601f19601f8301169050919050565b6000610756826106f4565b61076081856106ff565b9350610770818560208601610710565b6107798161073a565b840191505092915050565b6000604082019050818103600083015261079e818561074b565b90506107ad60208301846106ca565b9392505050565b600080fd5b600080fd5b7f4e487b7100000000000000000000000000000000000000000000000000000000600052604160045260246000fd5b6107f68261073a565b810181811067ffffffffffffffff82111715610815576108146107be565b5b80604052505050565b6000610828610653565b905061083482826107ed565b919050565b600067ffffffffffffffff821115610854576108536107be565b5b61085d8261073a565b9050602081019050919050565b82818337600083830152505050565b600061088c61088784610839565b61081e565b9050828152602081018484840111156108a8576108a76107b9565b5b6108b384828561086a565b509392505050565b600082601f8301126108d0576108cf6107b4565b5b81356108e0848260208601610879565b91505092915050565b6000602082840312156108ff576108fe61065d565b5b600082013567ffffffffffffffff81111561091d5761091c610662565b5b610929848285016108bb565b91505092915050565b600081519050919050565b600082825260208201905092915050565b6000819050602082019050919050565b600082825260208201905092915050565b600061097a826106f4565b610984818561095e565b9350610994818560208601610710565b61099d8161073a565b840191505092915050565b6109b181610667565b82525050565b600060408301600083015184820360008601526109d4828261096f565b91505060208301516109e960208601826109a8565b508091505092915050565b6000610a0083836109b7565b905092915050565b6000602082019050919050565b6000610a2082610932565b610a2a818561093d565b935083602082028501610a3c8561094e565b8060005b85811015610a785784840389528151610a5985826109f4565b9450610a6483610a08565b925060208a01995050600181019050610a40565b50829750879550505050505092915050565b60006020820190508181036000830152610aa48184610a15565b905092915050565b60008115159050919050565b610ac181610aac565b82525050565b6000602082019050610adc6000830184610ab8565b92915050565b600073ffffffffffffffffffffffffffffffffffffffff82169050919050565b6000610b0d82610ae2565b9050919050565b610b1d81610b02565b8114610b2857600080fd5b50565b600081359050610b3a81610b14565b92915050565b600060208284031215610b5657610b5561065d565b5b6000610b6484828501610b2b565b91505092915050565b7f596f75206861766520616c726561647920766f7465642e000000000000000000600082015250565b6000610ba36017836106ff565b9150610bae82610b6d565b602082019050919050565b60006020820190508181036000830152610bd281610b96565b9050919050565b7f496e76616c69642063616e64696461746520696e6465782e0000000000000000600082015250565b6000610c0f6018836106ff565b9150610c1a82610bd9565b602082019050919050565b60006020820190508181036000830152610c3e81610c02565b9050919050565b7f4e487b7100000000000000000000000000000000000000000000000000000000600052603260045260246000fd5b7f4e487b7100000000000000000000000000000000000000000000000000000000600052601160045260246000fd5b6000610cae82610667565b91507fffffffffffffffffffffffffffffffffffffffffffffffffffffffffffffffff8203610ce057610cdf610c74565b5b600182019050919050565b7f4e487b7100000000000000000000000000000000000000000000000000000000600052602260045260246000fd5b60006002820490506001821680610d3257607f821691505b602082108103610d4557610d44610ceb565b5b50919050565b60008190508160005260206000209050919050565b60006020601f8301049050919050565b600082821b905092915050565b600060088302610dad7fffffffffffffffffffffffffffffffffffffffffffffffffffffffffffffffff82610d70565b610db78683610d70565b95508019841693508086168417925050509392505050565b6000819050919050565b6000610df4610def610dea84610667565b610dcf565b610667565b9050919050565b6000819050919050565b610e0e83610dd9565b610e22610e1a82610dfb565b848454610d7d565b825550505050565b600090565b610e37610e2a565b610e42818484610e05565b505050565b5b81811015610e6657610e5b600082610e2f565b600181019050610e48565b5050565b601f821115610eab57610e7c81610d4b565b610e8584610d60565b81016020851015610e94578190505b610ea8610ea085610d60565b830182610e47565b50505b505050565b600082821c905092915050565b6000610ece60001984600802610eb0565b1980831691505092915050565b6000610ee78383610ebd565b9150826002028217905092915050565b610f00826106f4565b67ffffffffffffffff811115610f1957610f186107be565b5b610f238254610d1a565b610f2e828285610e6a565b600060209050601f831160018114610f615760008415610f4f578287015190505b610f598582610edb565b865550610fc1565b601f198416610f6f86610d4b565b60005b82811015610f9757848901518255600182019150602085019450602081019050610f72565b86831015610fb45784890151610fb0601f891682610ebd565b8355505b6001600288020188555050505b505050505050565b7f566f74696e6720686173206e6f742073746172746564207965742e0000000000600082015250565b6000610fff601b836106ff565b915061100a82610fc9565b602082019050919050565b6000602082019050818103600083015261102e81610ff2565b9050919050565b600061104082610667565b915061104b83610667565b925082820390508181111561106357611062610c74565b5b9291505056fea2646970667358221220816f2fa2cb02339b6d12e31190cb6368ca1e6c2778fe3b527b051ec4c9bc19bb64736f6c63430008120033","opcodes":"PUSH1 0x80 PUSH1 0x40 MSTORE CALLVALUE DUP1 ISZERO PUSH3 0x11 JUMPI PUSH1 0x0 DUP1 REVERT JUMPDEST POP PUSH1 0x40 MLOAD PUSH3 0x1987 CODESIZE SUB DUP1 PUSH3 0x1987 DUP4 CODECOPY DUP2 DUP2 ADD PUSH1 0x40 MSTORE DUP2 ADD SWAP1 PUSH3 0x37 SWAP2 SWAP1 PUSH3 0x419 JUMP JUMPDEST PUSH1 0x0 JUMPDEST DUP3 MLOAD DUP2 LT ISZERO PUSH3 0xDC JUMPI PUSH1 0x0 PUSH1 0x40 MLOAD DUP1 PUSH1 0x40 ADD PUSH1 0x40 MSTORE DUP1 DUP6 DUP5 DUP2 MLOAD DUP2 LT PUSH3 0x67 JUMPI PUSH3 0x66 PUSH3 0x47F JUMP JUMPDEST JUMPDEST PUSH1 0x20 MUL PUSH1 0x20 ADD ADD MLOAD DUP2 MSTORE PUSH1 0x20 ADD PUSH1 0x0 DUP2 MSTORE POP SWAP1 DUP1 PUSH1 0x1 DUP2 SLOAD ADD DUP1 DUP3 SSTORE DUP1 SWAP2 POP POP PUSH1 0x1 SWAP1 SUB SWAP1 PUSH1 0x0 MSTORE PUSH1 0x20 PUSH1 0x0 KECCAK256 SWAP1 PUSH1 0x2 MUL ADD PUSH1 0x0 SWAP1 SWAP2 SWAP1 SWAP2 SWAP1 SWAP2 POP PUSH1 0x0 DUP3 ADD MLOAD DUP2 PUSH1 0x0 ADD SWAP1 DUP2 PUSH3 0xB9 SWAP2 SWAP1 PUSH3 0x6EF JUMP JUMPDEST POP PUSH1 0x20 DUP3 ADD MLOAD DUP2 PUSH1 0x1 ADD SSTORE POP POP DUP1 DUP1 PUSH3 0xD3 SWAP1 PUSH3 0x805 JUMP JUMPDEST SWAP2 POP POP PUSH3 0x3A JUMP JUMPDEST POP CALLER PUSH1 0x1 PUSH1 0x0 PUSH2 0x100 EXP DUP2 SLOAD DUP2 PUSH20 0xFFFFFFFFFFFFFFFFFFFFFFFFFFFFFFFFFFFFFFFF MUL NOT AND SWAP1 DUP4 PUSH20 0xFFFFFFFFFFFFFFFFFFFFFFFFFFFFFFFFFFFFFFFF AND MUL OR SWAP1 SSTORE POP TIMESTAMP PUSH1 0x3 DUP2 SWAP1 SSTORE POP PUSH1 0x3C DUP2 PUSH3 0x134 SWAP2 SWAP1 PUSH3 0x852 JUMP JUMPDEST TIMESTAMP PUSH3 0x141 SWAP2 SWAP1 PUSH3 0x89D JUMP JUMPDEST PUSH1 0x4 DUP2 SWAP1 SSTORE POP POP POP PUSH3 0x8D8 JUMP JUMPDEST PUSH1 0x0 PUSH1 0x40 MLOAD SWAP1 POP SWAP1 JUMP JUMPDEST PUSH1 0x0 DUP1 REVERT JUMPDEST PUSH1 0x0 DUP1 REVERT JUMPDEST PUSH1 0x0 DUP1 REVERT JUMPDEST PUSH1 0x0 PUSH1 0x1F NOT PUSH1 0x1F DUP4 ADD AND SWAP1 POP SWAP2 SWAP1 POP JUMP JUMPDEST PUSH32 0x4E487B7100000000000000000000000000000000000000000000000000000000 PUSH1 0x0 MSTORE PUSH1 0x41 PUSH1 0x4 MSTORE PUSH1 0x24 PUSH1 0x0 REVERT JUMPDEST PUSH3 0x1B3 DUP3 PUSH3 0x168 JUMP JUMPDEST DUP2 ADD DUP2 DUP2 LT PUSH8 0xFFFFFFFFFFFFFFFF DUP3 GT OR ISZERO PUSH3 0x1D5 JUMPI PUSH3 0x1D4 PUSH3 0x179 JUMP JUMPDEST JUMPDEST DUP1 PUSH1 0x40 MSTORE POP POP POP JUMP JUMPDEST PUSH1 0x0 PUSH3 0x1EA PUSH3 0x14F JUMP JUMPDEST SWAP1 POP PUSH3 0x1F8 DUP3 DUP3 PUSH3 0x1A8 JUMP JUMPDEST SWAP2 SWAP1 POP JUMP JUMPDEST PUSH1 0x0 PUSH8 0xFFFFFFFFFFFFFFFF DUP3 GT ISZERO PUSH3 0x21B JUMPI PUSH3 0x21A PUSH3 0x179 JUMP JUMPDEST JUMPDEST PUSH1 0x20 DUP3 MUL SWAP1 POP PUSH1 0x20 DUP2 ADD SWAP1 POP SWAP2 SWAP1 POP JUMP JUMPDEST PUSH1 0x0 DUP1 REVERT JUMPDEST PUSH1 0x0 DUP1 REVERT JUMPDEST PUSH1 0x0 PUSH8 0xFFFFFFFFFFFFFFFF DUP3 GT ISZERO PUSH3 0x254 JUMPI PUSH3 0x253 PUSH3 0x179 JUMP JUMPDEST JUMPDEST PUSH3 0x25F DUP3 PUSH3 0x168 JUMP JUMPDEST SWAP1 POP PUSH1 0x20 DUP2 ADD SWAP1 POP SWAP2 SWAP1 POP JUMP JUMPDEST PUSH1 0x0 JUMPDEST DUP4 DUP2 LT ISZERO PUSH3 0x28C JUMPI DUP1 DUP3 ADD MLOAD DUP2 DUP5 ADD MSTORE PUSH1 0x20 DUP2 ADD SWAP1 POP PUSH3 0x26F JUMP JUMPDEST PUSH1 0x0 DUP5 DUP5 ADD MSTORE POP POP POP POP JUMP JUMPDEST PUSH1 0x0 PUSH3 0x2AF PUSH3 0x2A9 DUP5 PUSH3 0x236 JUMP JUMPDEST PUSH3 0x1DE JUMP JUMPDEST SWAP1 POP DUP3 DUP2 MSTORE PUSH1 0x20 DUP2 ADD DUP5 DUP5 DUP5 ADD GT ISZERO PUSH3 0x2CE JUMPI PUSH3 0x2CD PUSH3 0x231 JUMP JUMPDEST JUMPDEST PUSH3 0x2DB DUP5 DUP3 DUP6 PUSH3 0x26C JUMP JUMPDEST POP SWAP4 SWAP3 POP POP POP JUMP JUMPDEST PUSH1 0x0 DUP3 PUSH1 0x1F DUP4 ADD SLT PUSH3 0x2FB JUMPI PUSH3 0x2FA PUSH3 0x163 JUMP JUMPDEST JUMPDEST DUP2 MLOAD PUSH3 0x30D DUP5 DUP3 PUSH1 0x20 DUP7 ADD PUSH3 0x298 JUMP JUMPDEST SWAP2 POP POP SWAP3 SWAP2 POP POP JUMP JUMPDEST PUSH1 0x0 PUSH3 0x32D PUSH3 0x327 DUP5 PUSH3 0x1FD JUMP JUMPDEST PUSH3 0x1DE JUMP JUMPDEST SWAP1 POP DUP1 DUP4 DUP3 MSTORE PUSH1 0x20 DUP3 ADD SWAP1 POP PUSH1 0x20 DUP5 MUL DUP4 ADD DUP6 DUP2 GT ISZERO PUSH3 0x353 JUMPI PUSH3 0x352 PUSH3 0x22C JUMP JUMPDEST JUMPDEST DUP4 JUMPDEST DUP2 DUP2 LT ISZERO PUSH3 0x3A1 JUMPI DUP1 MLOAD PUSH8 0xFFFFFFFFFFFFFFFF DUP2 GT ISZERO PUSH3 0x37C JUMPI PUSH3 0x37B PUSH3 0x163 JUMP JUMPDEST JUMPDEST DUP1 DUP7 ADD PUSH3 0x38B DUP10 DUP3 PUSH3 0x2E3 JUMP JUMPDEST DUP6 MSTORE PUSH1 0x20 DUP6 ADD SWAP5 POP POP POP PUSH1 0x20 DUP2 ADD SWAP1 POP PUSH3 0x355 JUMP JUMPDEST POP POP POP SWAP4 SWAP3 POP POP POP JUMP JUMPDEST PUSH1 0x0 DUP3 PUSH1 0x1F DUP4 ADD SLT PUSH3 0x3C3 JUMPI PUSH3 0x3C2 PUSH3 0x163 JUMP JUMPDEST JUMPDEST DUP2 MLOAD PUSH3 0x3D5 DUP5 DUP3 PUSH1 0x20 DUP7 ADD PUSH3 0x316 JUMP JUMPDEST SWAP2 POP POP SWAP3 SWAP2 POP POP JUMP JUMPDEST PUSH1 0x0 DUP2 SWAP1 POP SWAP2 SWAP1 POP JUMP JUMPDEST PUSH3 0x3F3 DUP2 PUSH3 0x3DE JUMP JUMPDEST DUP2 EQ PUSH3 0x3FF JUMPI PUSH1 0x0 DUP1 REVERT JUMPDEST POP JUMP JUMPDEST PUSH1 0x0 DUP2 MLOAD SWAP1 POP PUSH3 0x413 DUP2 PUSH3 0x3E8 JUMP JUMPDEST SWAP3 SWAP2 POP POP JUMP JUMPDEST PUSH1 0x0 DUP1 PUSH1 0x40 DUP4 DUP6 SUB SLT ISZERO PUSH3 0x433 JUMPI PUSH3 0x432 PUSH3 0x159 JUMP JUMPDEST JUMPDEST PUSH1 0x0 DUP4 ADD MLOAD PUSH8 0xFFFFFFFFFFFFFFFF DUP2 GT ISZERO PUSH3 0x454 JUMPI PUSH3 0x453 PUSH3 0x15E JUMP JUMPDEST JUMPDEST PUSH3 0x462 DUP6 DUP3 DUP7 ADD PUSH3 0x3AB JUMP JUMPDEST SWAP3 POP POP PUSH1 0x20 PUSH3 0x475 DUP6 DUP3 DUP7 ADD PUSH3 0x402 JUMP JUMPDEST SWAP2 POP POP SWAP3 POP SWAP3 SWAP1 POP JUMP JUMPDEST PUSH32 0x4E487B7100000000000000000000000000000000000000000000000000000000 PUSH1 0x0 MSTORE PUSH1 0x32 PUSH1 0x4 MSTORE PUSH1 0x24 PUSH1 0x0 REVERT JUMPDEST PUSH1 0x0 DUP2 MLOAD SWAP1 POP SWAP2 SWAP1 POP JUMP JUMPDEST PUSH32 0x4E487B7100000000000000000000000000000000000000000000000000000000 PUSH1 0x0 MSTORE PUSH1 0x22 PUSH1 0x4 MSTORE PUSH1 0x24 PUSH1 0x0 REVERT JUMPDEST PUSH1 0x0 PUSH1 0x2 DUP3 DIV SWAP1 POP PUSH1 0x1 DUP3 AND DUP1 PUSH3 0x501 JUMPI PUSH1 0x7F DUP3 AND SWAP2 POP JUMPDEST PUSH1 0x20 DUP3 LT DUP2 SUB PUSH3 0x517 JUMPI PUSH3 0x516 PUSH3 0x4B9 JUMP JUMPDEST JUMPDEST POP SWAP2 SWAP1 POP JUMP JUMPDEST PUSH1 0x0 DUP2 SWAP1 POP DUP2 PUSH1 0x0 MSTORE PUSH1 0x20 PUSH1 0x0 KECCAK256 SWAP1 POP SWAP2 SWAP1 POP JUMP JUMPDEST PUSH1 0x0 PUSH1 0x20 PUSH1 0x1F DUP4 ADD DIV SWAP1 POP SWAP2 SWAP1 POP JUMP JUMPDEST PUSH1 0x0 DUP3 DUP3 SHL SWAP1 POP SWAP3 SWAP2 POP POP JUMP JUMPDEST PUSH1 0x0 PUSH1 0x8 DUP4 MUL PUSH3 0x581 PUSH32 0xFFFFFFFFFFFFFFFFFFFFFFFFFFFFFFFFFFFFFFFFFFFFFFFFFFFFFFFFFFFFFFFF DUP3 PUSH3 0x542 JUMP JUMPDEST PUSH3 0x58D DUP7 DUP4 PUSH3 0x542 JUMP JUMPDEST SWAP6 POP DUP1 NOT DUP5 AND SWAP4 POP DUP1 DUP7 AND DUP5 OR SWAP3 POP POP POP SWAP4 SWAP3 POP POP POP JUMP JUMPDEST PUSH1 0x0 DUP2 SWAP1 POP SWAP2 SWAP1 POP JUMP JUMPDEST PUSH1 0x0 PUSH3 0x5D0 PUSH3 0x5CA PUSH3 0x5C4 DUP5 PUSH3 0x3DE JUMP JUMPDEST PUSH3 0x5A5 JUMP JUMPDEST PUSH3 0x3DE JUMP JUMPDEST SWAP1 POP SWAP2 SWAP1 POP JUMP JUMPDEST PUSH1 0x0 DUP2 SWAP1 POP SWAP2 SWAP1 POP JUMP JUMPDEST PUSH3 0x5EC DUP4 PUSH3 0x5AF JUMP JUMPDEST PUSH3 0x604 PUSH3 0x5FB DUP3 PUSH3 0x5D7 JUMP JUMPDEST DUP5 DUP5 SLOAD PUSH3 0x54F JUMP JUMPDEST DUP3 SSTORE POP POP POP POP JUMP JUMPDEST PUSH1 0x0 SWAP1 JUMP JUMPDEST PUSH3 0x61B PUSH3 0x60C JUMP JUMPDEST PUSH3 0x628 DUP2 DUP5 DUP5 PUSH3 0x5E1 JUMP JUMPDEST POP POP POP JUMP JUMPDEST JUMPDEST DUP2 DUP2 LT ISZERO PUSH3 0x650 JUMPI PUSH3 0x644 PUSH1 0x0 DUP3 PUSH3 0x611 JUMP JUMPDEST PUSH1 0x1 DUP2 ADD SWAP1 POP PUSH3 0x62E JUMP JUMPDEST POP POP JUMP JUMPDEST PUSH1 0x1F DUP3 GT ISZERO PUSH3 0x69F JUMPI PUSH3 0x669 DUP2 PUSH3 0x51D JUMP JUMPDEST PUSH3 0x674 DUP5 PUSH3 0x532 JUMP JUMPDEST DUP2 ADD PUSH1 0x20 DUP6 LT ISZERO PUSH3 0x684 JUMPI DUP2 SWAP1 POP JUMPDEST PUSH3 0x69C PUSH3 0x693 DUP6 PUSH3 0x532 JUMP JUMPDEST DUP4 ADD DUP3 PUSH3 0x62D JUMP JUMPDEST POP POP JUMPDEST POP POP POP JUMP JUMPDEST PUSH1 0x0 DUP3 DUP3 SHR SWAP1 POP SWAP3 SWAP2 POP POP JUMP JUMPDEST PUSH1 0x0 PUSH3 0x6C4 PUSH1 0x0 NOT DUP5 PUSH1 0x8 MUL PUSH3 0x6A4 JUMP JUMPDEST NOT DUP1 DUP4 AND SWAP2 POP POP SWAP3 SWAP2 POP POP JUMP JUMPDEST PUSH1 0x0 PUSH3 0x6DF DUP4 DUP4 PUSH3 0x6B1 JUMP JUMPDEST SWAP2 POP DUP3 PUSH1 0x2 MUL DUP3 OR SWAP1 POP SWAP3 SWAP2 POP POP JUMP JUMPDEST PUSH3 0x6FA DUP3 PUSH3 0x4AE JUMP JUMPDEST PUSH8 0xFFFFFFFFFFFFFFFF DUP2 GT ISZERO PUSH3 0x716 JUMPI PUSH3 0x715 PUSH3 0x179 JUMP JUMPDEST JUMPDEST PUSH3 0x722 DUP3 SLOAD PUSH3 0x4E8 JUMP JUMPDEST PUSH3 0x72F DUP3 DUP3 DUP6 PUSH3 0x654 JUMP JUMPDEST PUSH1 0x0 PUSH1 0x20 SWAP1 POP PUSH1 0x1F DUP4 GT PUSH1 0x1 DUP2 EQ PUSH3 0x767 JUMPI PUSH1 0x0 DUP5 ISZERO PUSH3 0x752 JUMPI DUP3 DUP8 ADD MLOAD SWAP1 POP JUMPDEST PUSH3 0x75E DUP6 DUP3 PUSH3 0x6D1 JUMP JUMPDEST DUP7 SSTORE POP PUSH3 0x7CE JUMP JUMPDEST PUSH1 0x1F NOT DUP5 AND PUSH3 0x777 DUP7 PUSH3 0x51D JUMP JUMPDEST PUSH1 0x0 JUMPDEST DUP3 DUP2 LT ISZERO PUSH3 0x7A1 JUMPI DUP5 DUP10 ADD MLOAD DUP3 SSTORE PUSH1 0x1 DUP3 ADD SWAP2 POP PUSH1 0x20 DUP6 ADD SWAP5 POP PUSH1 0x20 DUP2 ADD SWAP1 POP PUSH3 0x77A JUMP JUMPDEST DUP7 DUP4 LT ISZERO PUSH3 0x7C1 JUMPI DUP5 DUP10 ADD MLOAD PUSH3 0x7BD PUSH1 0x1F DUP10 AND DUP3 PUSH3 0x6B1 JUMP JUMPDEST DUP4 SSTORE POP JUMPDEST PUSH1 0x1 PUSH1 0x2 DUP9 MUL ADD DUP9 SSTORE POP POP POP JUMPDEST POP POP POP POP POP POP JUMP JUMPDEST PUSH32 0x4E487B7100000000000000000000000000000000000000000000000000000000 PUSH1 0x0 MSTORE PUSH1 0x11 PUSH1 0x4 MSTORE PUSH1 0x24 PUSH1 0x0 REVERT JUMPDEST PUSH1 0x0 PUSH3 0x812 DUP3 PUSH3 0x3DE JUMP JUMPDEST SWAP2 POP PUSH32 0xFFFFFFFFFFFFFFFFFFFFFFFFFFFFFFFFFFFFFFFFFFFFFFFFFFFFFFFFFFFFFFFF DUP3 SUB PUSH3 0x847 JUMPI PUSH3 0x846 PUSH3 0x7D6 JUMP JUMPDEST JUMPDEST PUSH1 0x1 DUP3 ADD SWAP1 POP SWAP2 SWAP1 POP JUMP JUMPDEST PUSH1 0x0 PUSH3 0x85F DUP3 PUSH3 0x3DE JUMP JUMPDEST SWAP2 POP PUSH3 0x86C DUP4 PUSH3 0x3DE JUMP JUMPDEST SWAP3 POP DUP3 DUP3 MUL PUSH3 0x87C DUP2 PUSH3 0x3DE JUMP JUMPDEST SWAP2 POP DUP3 DUP3 DIV DUP5 EQ DUP4 ISZERO OR PUSH3 0x896 JUMPI PUSH3 0x895 PUSH3 0x7D6 JUMP JUMPDEST JUMPDEST POP SWAP3 SWAP2 POP POP JUMP JUMPDEST PUSH1 0x0 PUSH3 0x8AA DUP3 PUSH3 0x3DE JUMP JUMPDEST SWAP2 POP PUSH3 0x8B7 DUP4 PUSH3 0x3DE JUMP JUMPDEST SWAP3 POP DUP3 DUP3 ADD SWAP1 POP DUP1 DUP3 GT ISZERO PUSH3 0x8D2 JUMPI PUSH3 0x8D1 PUSH3 0x7D6 JUMP JUMPDEST JUMPDEST SWAP3 SWAP2 POP POP JUMP JUMPDEST PUSH2 0x109F DUP1 PUSH3 0x8E8 PUSH1 0x0 CODECOPY PUSH1 0x0 RETURN INVALID PUSH1 0x80 PUSH1 0x40 MSTORE CALLVALUE DUP1 ISZERO PUSH2 0x10 JUMPI PUSH1 0x0 DUP1 REVERT JUMPDEST POP PUSH1 0x4 CALLDATASIZE LT PUSH2 0x93 JUMPI PUSH1 0x0 CALLDATALOAD PUSH1 0xE0 SHR DUP1 PUSH4 0x4D6BDA5F GT PUSH2 0x66 JUMPI DUP1 PUSH4 0x4D6BDA5F EQ PUSH2 0x11F JUMPI DUP1 PUSH4 0x581C281C EQ PUSH2 0x13D JUMPI DUP1 PUSH4 0x85A38635 EQ PUSH2 0x15B JUMPI DUP1 PUSH4 0xA3EC138D EQ PUSH2 0x179 JUMPI DUP1 PUSH4 0xEFB98BCF EQ PUSH2 0x1A9 JUMPI PUSH2 0x93 JUMP JUMPDEST DUP1 PUSH4 0x121B93F EQ PUSH2 0x98 JUMPI DUP1 PUSH4 0x101158AF EQ PUSH2 0xB4 JUMPI DUP1 PUSH4 0x3477EE2E EQ PUSH2 0xD2 JUMPI DUP1 PUSH4 0x462E91EC EQ PUSH2 0x103 JUMPI JUMPDEST PUSH1 0x0 DUP1 REVERT JUMPDEST PUSH2 0xB2 PUSH1 0x4 DUP1 CALLDATASIZE SUB DUP2 ADD SWAP1 PUSH2 0xAD SWAP2 SWAP1 PUSH2 0x69D JUMP JUMPDEST PUSH2 0x1C7 JUMP JUMPDEST STOP JUMPDEST PUSH2 0xBC PUSH2 0x329 JUMP JUMPDEST PUSH1 0x40 MLOAD PUSH2 0xC9 SWAP2 SWAP1 PUSH2 0x6D9 JUMP JUMPDEST PUSH1 0x40 MLOAD DUP1 SWAP2 SUB SWAP1 RETURN JUMPDEST PUSH2 0xEC PUSH1 0x4 DUP1 CALLDATASIZE SUB DUP2 ADD SWAP1 PUSH2 0xE7 SWAP2 SWAP1 PUSH2 0x69D JUMP JUMPDEST PUSH2 0x32F JUMP JUMPDEST PUSH1 0x40 MLOAD PUSH2 0xFA SWAP3 SWAP2 SWAP1 PUSH2 0x784 JUMP JUMPDEST PUSH1 0x40 MLOAD DUP1 SWAP2 SUB SWAP1 RETURN JUMPDEST PUSH2 0x11D PUSH1 0x4 DUP1 CALLDATASIZE SUB DUP2 ADD SWAP1 PUSH2 0x118 SWAP2 SWAP1 PUSH2 0x8E9 JUMP JUMPDEST PUSH2 0x3EB JUMP JUMPDEST STOP JUMPDEST PUSH2 0x127 PUSH2 0x4AB JUMP JUMPDEST PUSH1 0x40 MLOAD PUSH2 0x134 SWAP2 SWAP1 PUSH2 0xA8A JUMP JUMPDEST PUSH1 0x40 MLOAD DUP1 SWAP2 SUB SWAP1 RETURN JUMPDEST PUSH2 0x145 PUSH2 0x5A6 JUMP JUMPDEST PUSH1 0x40 MLOAD PUSH2 0x152 SWAP2 SWAP1 PUSH2 0xAC7 JUMP JUMPDEST PUSH1 0x40 MLOAD DUP1 SWAP2 SUB SWAP1 RETURN JUMPDEST PUSH2 0x163 PUSH2 0x5C0 JUMP JUMPDEST PUSH1 0x40 MLOAD PUSH2 0x170 SWAP2 SWAP1 PUSH2 0x6D9 JUMP JUMPDEST PUSH1 0x40 MLOAD DUP1 SWAP2 SUB SWAP1 RETURN JUMPDEST PUSH2 0x193 PUSH1 0x4 DUP1 CALLDATASIZE SUB DUP2 ADD SWAP1 PUSH2 0x18E SWAP2 SWAP1 PUSH2 0xB40 JUMP JUMPDEST PUSH2 0x5C6 JUMP JUMPDEST PUSH1 0x40 MLOAD PUSH2 0x1A0 SWAP2 SWAP1 PUSH2 0xAC7 JUMP JUMPDEST PUSH1 0x40 MLOAD DUP1 SWAP2 SUB SWAP1 RETURN JUMPDEST PUSH2 0x1B1 PUSH2 0x5E6 JUMP JUMPDEST PUSH1 0x40 MLOAD PUSH2 0x1BE SWAP2 SWAP1 PUSH2 0x6D9 JUMP JUMPDEST PUSH1 0x40 MLOAD DUP1 SWAP2 SUB SWAP1 RETURN JUMPDEST PUSH1 0x2 PUSH1 0x0 CALLER PUSH20 0xFFFFFFFFFFFFFFFFFFFFFFFFFFFFFFFFFFFFFFFF AND PUSH20 0xFFFFFFFFFFFFFFFFFFFFFFFFFFFFFFFFFFFFFFFF AND DUP2 MSTORE PUSH1 0x20 ADD SWAP1 DUP2 MSTORE PUSH1 0x20 ADD PUSH1 0x0 KECCAK256 PUSH1 0x0 SWAP1 SLOAD SWAP1 PUSH2 0x100 EXP SWAP1 DIV PUSH1 0xFF AND ISZERO PUSH2 0x254 JUMPI PUSH1 0x40 MLOAD PUSH32 0x8C379A000000000000000000000000000000000000000000000000000000000 DUP2 MSTORE PUSH1 0x4 ADD PUSH2 0x24B SWAP1 PUSH2 0xBB9 JUMP JUMPDEST PUSH1 0x40 MLOAD DUP1 SWAP2 SUB SWAP1 REVERT JUMPDEST PUSH1 0x0 DUP1 SLOAD SWAP1 POP DUP2 LT PUSH2 0x29B JUMPI PUSH1 0x40 MLOAD PUSH32 0x8C379A000000000000000000000000000000000000000000000000000000000 DUP2 MSTORE PUSH1 0x4 ADD PUSH2 0x292 SWAP1 PUSH2 0xC25 JUMP JUMPDEST PUSH1 0x40 MLOAD DUP1 SWAP2 SUB SWAP1 REVERT JUMPDEST PUSH1 0x0 DUP2 DUP2 SLOAD DUP2 LT PUSH2 0x2AF JUMPI PUSH2 0x2AE PUSH2 0xC45 JUMP JUMPDEST JUMPDEST SWAP1 PUSH1 0x0 MSTORE PUSH1 0x20 PUSH1 0x0 KECCAK256 SWAP1 PUSH1 0x2 MUL ADD PUSH1 0x1 ADD PUSH1 0x0 DUP2 SLOAD DUP1 SWAP3 SWAP2 SWAP1 PUSH2 0x2D1 SWAP1 PUSH2 0xCA3 JUMP JUMPDEST SWAP2 SWAP1 POP SSTORE POP PUSH1 0x1 ISZERO ISZERO PUSH1 0x2 PUSH1 0x0 CALLER PUSH20 0xFFFFFFFFFFFFFFFFFFFFFFFFFFFFFFFFFFFFFFFF AND PUSH20 0xFFFFFFFFFFFFFFFFFFFFFFFFFFFFFFFFFFFFFFFF AND DUP2 MSTORE PUSH1 0x20 ADD SWAP1 DUP2 MSTORE PUSH1 0x20 ADD PUSH1 0x0 KECCAK256 PUSH1 0x0 SWAP1 SLOAD SWAP1 PUSH2 0x100 EXP SWAP1 POP POP POP POP JUMP JUMPDEST PUSH1 0x3 SLOAD DUP2 JUMP JUMPDEST PUSH1 0x0 DUP2 DUP2 SLOAD DUP2 LT PUSH2 0x33F JUMPI PUSH1 0x0 DUP1 REVERT JUMPDEST SWAP1 PUSH1 0x0 MSTORE PUSH1 0x20 PUSH1 0x0 KECCAK256 SWAP1 PUSH1 0x2 MUL ADD PUSH1 0x0 SWAP2 POP SWAP1 POP DUP1 PUSH1 0x0 ADD DUP1 SLOAD PUSH2 0x362 SWAP1 PUSH2 0xD1A JUMP JUMPDEST DUP1 PUSH1 0x1F ADD PUSH1 0x20 DUP1 SWAP2 DIV MUL PUSH1 0x20 ADD PUSH1 0x40 MLOAD SWAP1 DUP2 ADD PUSH1 0x40 MSTORE DUP1 SWAP3 SWAP2 SWAP1 DUP2 DUP2 MSTORE PUSH1 0x20 ADD DUP3 DUP1 SLOAD PUSH2 0x38E SWAP1 PUSH2 0xD1A JUMP JUMPDEST DUP1 ISZERO PUSH2 0x3DB JUMPI DUP1 PUSH1 0x1F LT PUSH2 0x3B0 JUMPI PUSH2 0x100 DUP1 DUP4 SLOAD DIV MUL DUP4 MSTORE SWAP2 PUSH1 0x20 ADD SWAP2 PUSH2 0x3DB JUMP JUMPDEST DUP3 ADD SWAP2 SWAP1 PUSH1 0x0 MSTORE PUSH1 0x20 PUSH1 0x0 KECCAK256 SWAP1 JUMPDEST DUP2 SLOAD DUP2 MSTORE SWAP1 PUSH1 0x1 ADD SWAP1 PUSH1 0x20 ADD DUP1 DUP4 GT PUSH2 0x3BE JUMPI DUP3 SWAP1 SUB PUSH1 0x1F AND DUP3 ADD SWAP2 JUMPDEST POP POP POP POP POP SWAP1 DUP1 PUSH1 0x1 ADD SLOAD SWAP1 POP DUP3 JUMP JUMPDEST PUSH1 0x1 PUSH1 0x0 SWAP1 SLOAD SWAP1 PUSH2 0x100 EXP SWAP1 DIV PUSH20 0xFFFFFFFFFFFFFFFFFFFFFFFFFFFFFFFFFFFFFFFF AND PUSH20 0xFFFFFFFFFFFFFFFFFFFFFFFFFFFFFFFFFFFFFFFF AND CALLER PUSH20 0xFFFFFFFFFFFFFFFFFFFFFFFFFFFFFFFFFFFFFFFF AND EQ PUSH2 0x445 JUMPI PUSH1 0x0 DUP1 REVERT JUMPDEST PUSH1 0x0 PUSH1 0x40 MLOAD DUP1 PUSH1 0x40 ADD PUSH1 0x40 MSTORE DUP1 DUP4 DUP2 MSTORE PUSH1 0x20 ADD PUSH1 0x0 DUP2 MSTORE POP SWAP1 DUP1 PUSH1 0x1 DUP2 SLOAD ADD DUP1 DUP3 SSTORE DUP1 SWAP2 POP POP PUSH1 0x1 SWAP1 SUB SWAP1 PUSH1 0x0 MSTORE PUSH1 0x20 PUSH1 0x0 KECCAK256 SWAP1 PUSH1 0x2 MUL ADD PUSH1 0x0 SWAP1 SWAP2 SWAP1 SWAP2 SWAP1 SWAP2 POP PUSH1 0x0 DUP3 ADD MLOAD DUP2 PUSH1 0x0 ADD SWAP1 DUP2 PUSH2 0x49B SWAP2 SWAP1 PUSH2 0xEF7 JUMP JUMPDEST POP PUSH1 0x20 DUP3 ADD MLOAD DUP2 PUSH1 0x1 ADD SSTORE POP POP POP JUMP JUMPDEST PUSH1 0x60 PUSH1 0x0 DUP1 SLOAD DUP1 PUSH1 0x20 MUL PUSH1 0x20 ADD PUSH1 0x40 MLOAD SWAP1 DUP2 ADD PUSH1 0x40 MSTORE DUP1 SWAP3 SWAP2 SWAP1 DUP2 DUP2 MSTORE PUSH1 0x20 ADD PUSH1 0x0 SWAP1 JUMPDEST DUP3 DUP3 LT ISZERO PUSH2 0x59D JUMPI DUP4 DUP3 SWAP1 PUSH1 0x0 MSTORE PUSH1 0x20 PUSH1 0x0 KECCAK256 SWAP1 PUSH1 0x2 MUL ADD PUSH1 0x40 MLOAD DUP1 PUSH1 0x40 ADD PUSH1 0x40 MSTORE SWAP1 DUP2 PUSH1 0x0 DUP3 ADD DUP1 SLOAD PUSH2 0x502 SWAP1 PUSH2 0xD1A JUMP JUMPDEST DUP1 PUSH1 0x1F ADD PUSH1 0x20 DUP1 SWAP2 DIV MUL PUSH1 0x20 ADD PUSH1 0x40 MLOAD SWAP1 DUP2 ADD PUSH1 0x40 MSTORE DUP1 SWAP3 SWAP2 SWAP1 DUP2 DUP2 MSTORE PUSH1 0x20 ADD DUP3 DUP1 SLOAD PUSH2 0x52E SWAP1 PUSH2 0xD1A JUMP JUMPDEST DUP1 ISZERO PUSH2 0x57B JUMPI DUP1 PUSH1 0x1F LT PUSH2 0x550 JUMPI PUSH2 0x100 DUP1 DUP4 SLOAD DIV MUL DUP4 MSTORE SWAP2 PUSH1 0x20 ADD SWAP2 PUSH2 0x57B JUMP JUMPDEST DUP3 ADD SWAP2 SWAP1 PUSH1 0x0 MSTORE PUSH1 0x20 PUSH1 0x0 KECCAK256 SWAP1 JUMPDEST DUP2 SLOAD DUP2 MSTORE SWAP1 PUSH1 0x1 ADD SWAP1 PUSH1 0x20 ADD DUP1 DUP4 GT PUSH2 0x55E JUMPI DUP3 SWAP1 SUB PUSH1 0x1F AND DUP3 ADD SWAP2 JUMPDEST POP POP POP POP POP DUP2 MSTORE PUSH1 0x20 ADD PUSH1 0x1 DUP3 ADD SLOAD DUP2 MSTORE POP POP DUP2 MSTORE PUSH1 0x20 ADD SWAP1 PUSH1 0x1 ADD SWAP1 PUSH2 0x4CF JUMP JUMPDEST POP POP POP POP SWAP1 POP SWAP1 JUMP JUMPDEST PUSH1 0x0 PUSH1 0x3 SLOAD TIMESTAMP LT ISZERO DUP1 ISZERO PUSH2 0x5BB JUMPI POP PUSH1 0x4 SLOAD TIMESTAMP LT JUMPDEST SWAP1 POP SWAP1 JUMP JUMPDEST PUSH1 0x4 SLOAD DUP2 JUMP JUMPDEST PUSH1 0x2 PUSH1 0x20 MSTORE DUP1 PUSH1 0x0 MSTORE PUSH1 0x40 PUSH1 0x0 KECCAK256 PUSH1 0x0 SWAP2 POP SLOAD SWAP1 PUSH2 0x100 EXP SWAP1 DIV PUSH1 0xFF AND DUP2 JUMP JUMPDEST PUSH1 0x0 PUSH1 0x3 SLOAD TIMESTAMP LT ISZERO PUSH2 0x62D JUMPI PUSH1 0x40 MLOAD PUSH32 0x8C379A000000000000000000000000000000000000000000000000000000000 DUP2 MSTORE PUSH1 0x4 ADD PUSH2 0x624 SWAP1 PUSH2 0x1015 JUMP JUMPDEST PUSH1 0x40 MLOAD DUP1 SWAP2 SUB SWAP1 REVERT JUMPDEST PUSH1 0x4 SLOAD TIMESTAMP LT PUSH2 0x63F JUMPI PUSH1 0x0 SWAP1 POP PUSH2 0x650 JUMP JUMPDEST TIMESTAMP PUSH1 0x4 SLOAD PUSH2 0x64D SWAP2 SWAP1 PUSH2 0x1035 JUMP JUMPDEST SWAP1 POP JUMPDEST SWAP1 JUMP JUMPDEST PUSH1 0x0 PUSH1 0x40 MLOAD SWAP1 POP SWAP1 JUMP JUMPDEST PUSH1 0x0 DUP1 REVERT JUMPDEST PUSH1 0x0 DUP1 REVERT JUMPDEST PUSH1 0x0 DUP2 SWAP1 POP SWAP2 SWAP1 POP JUMP JUMPDEST PUSH2 0x67A DUP2 PUSH2 0x667 JUMP JUMPDEST DUP2 EQ PUSH2 0x685 JUMPI PUSH1 0x0 DUP1 REVERT JUMPDEST POP JUMP JUMPDEST PUSH1 0x0 DUP2 CALLDATALOAD SWAP1 POP PUSH2 0x697 DUP2 PUSH2 0x671 JUMP JUMPDEST SWAP3 SWAP2 POP POP JUMP JUMPDEST PUSH1 0x0 PUSH1 0x20 DUP3 DUP5 SUB SLT ISZERO PUSH2 0x6B3 JUMPI PUSH2 0x6B2 PUSH2 0x65D JUMP JUMPDEST JUMPDEST PUSH1 0x0 PUSH2 0x6C1 DUP5 DUP3 DUP6 ADD PUSH2 0x688 JUMP JUMPDEST SWAP2 POP POP SWAP3 SWAP2 POP POP JUMP JUMPDEST PUSH2 0x6D3 DUP2 PUSH2 0x667 JUMP JUMPDEST DUP3 MSTORE POP POP JUMP JUMPDEST PUSH1 0x0 PUSH1 0x20 DUP3 ADD SWAP1 POP PUSH2 0x6EE PUSH1 0x0 DUP4 ADD DUP5 PUSH2 0x6CA JUMP JUMPDEST SWAP3 SWAP2 POP POP JUMP JUMPDEST PUSH1 0x0 DUP2 MLOAD SWAP1 POP SWAP2 SWAP1 POP JUMP JUMPDEST PUSH1 0x0 DUP3 DUP3 MSTORE PUSH1 0x20 DUP3 ADD SWAP1 POP SWAP3 SWAP2 POP POP JUMP JUMPDEST PUSH1 0x0 JUMPDEST DUP4 DUP2 LT ISZERO PUSH2 0x72E JUMPI DUP1 DUP3 ADD MLOAD DUP2 DUP5 ADD MSTORE PUSH1 0x20 DUP2 ADD SWAP1 POP PUSH2 0x713 JUMP JUMPDEST PUSH1 0x0 DUP5 DUP5 ADD MSTORE POP POP POP POP JUMP JUMPDEST PUSH1 0x0 PUSH1 0x1F NOT PUSH1 0x1F DUP4 ADD AND SWAP1 POP SWAP2 SWAP1 POP JUMP JUMPDEST PUSH1 0x0 PUSH2 0x756 DUP3 PUSH2 0x6F4 JUMP JUMPDEST PUSH2 0x760 DUP2 DUP6 PUSH2 0x6FF JUMP JUMPDEST SWAP4 POP PUSH2 0x770 DUP2 DUP6 PUSH1 0x20 DUP7 ADD PUSH2 0x710 JUMP JUMPDEST PUSH2 0x779 DUP2 PUSH2 0x73A JUMP JUMPDEST DUP5 ADD SWAP2 POP POP SWAP3 SWAP2 POP POP JUMP JUMPDEST PUSH1 0x0 PUSH1 0x40 DUP3 ADD SWAP1 POP DUP2 DUP2 SUB PUSH1 0x0 DUP4 ADD MSTORE PUSH2 0x79E DUP2 DUP6 PUSH2 0x74B JUMP JUMPDEST SWAP1 POP PUSH2 0x7AD PUSH1 0x20 DUP4 ADD DUP5 PUSH2 0x6CA JUMP JUMPDEST SWAP4 SWAP3 POP POP POP JUMP JUMPDEST PUSH1 0x0 DUP1 REVERT JUMPDEST PUSH1 0x0 DUP1 REVERT JUMPDEST PUSH32 0x4E487B7100000000000000000000000000000000000000000000000000000000 PUSH1 0x0 MSTORE PUSH1 0x41 PUSH1 0x4 MSTORE PUSH1 0x24 PUSH1 0x0 REVERT JUMPDEST PUSH2 0x7F6 DUP3 PUSH2 0x73A JUMP JUMPDEST DUP2 ADD DUP2 DUP2 LT PUSH8 0xFFFFFFFFFFFFFFFF DUP3 GT OR ISZERO PUSH2 0x815 JUMPI PUSH2 0x814 PUSH2 0x7BE JUMP JUMPDEST JUMPDEST DUP1 PUSH1 0x40 MSTORE POP POP POP JUMP JUMPDEST PUSH1 0x0 PUSH2 0x828 PUSH2 0x653 JUMP JUMPDEST SWAP1 POP PUSH2 0x834 DUP3 DUP3 PUSH2 0x7ED JUMP JUMPDEST SWAP2 SWAP1 POP JUMP JUMPDEST PUSH1 0x0 PUSH8 0xFFFFFFFFFFFFFFFF DUP3 GT ISZERO PUSH2 0x854 JUMPI PUSH2 0x853 PUSH2 0x7BE JUMP JUMPDEST JUMPDEST PUSH2 0x85D DUP3 PUSH2 0x73A JUMP JUMPDEST SWAP1 POP PUSH1 0x20 DUP2 ADD SWAP1 POP SWAP2 SWAP1 POP JUMP JUMPDEST DUP3 DUP2 DUP4 CALLDATACOPY PUSH1 0x0 DUP4 DUP4 ADD MSTORE POP POP POP JUMP JUMPDEST PUSH1 0x0 PUSH2 0x88C PUSH2 0x887 DUP5 PUSH2 0x839 JUMP JUMPDEST PUSH2 0x81E JUMP JUMPDEST SWAP1 POP DUP3 DUP2 MSTORE PUSH1 0x20 DUP2 ADD DUP5 DUP5 DUP5 ADD GT ISZERO PUSH2 0x8A8 JUMPI PUSH2 0x8A7 PUSH2 0x7B9 JUMP JUMPDEST JUMPDEST PUSH2 0x8B3 DUP5 DUP3 DUP6 PUSH2 0x86A JUMP JUMPDEST POP SWAP4 SWAP3 POP POP POP JUMP JUMPDEST PUSH1 0x0 DUP3 PUSH1 0x1F DUP4 ADD SLT PUSH2 0x8D0 JUMPI PUSH2 0x8CF PUSH2 0x7B4 JUMP JUMPDEST JUMPDEST DUP2 CALLDATALOAD PUSH2 0x8E0 DUP5 DUP3 PUSH1 0x20 DUP7 ADD PUSH2 0x879 JUMP JUMPDEST SWAP2 POP POP SWAP3 SWAP2 POP POP JUMP JUMPDEST PUSH1 0x0 PUSH1 0x20 DUP3 DUP5 SUB SLT ISZERO PUSH2 0x8FF JUMPI PUSH2 0x8FE PUSH2 0x65D JUMP JUMPDEST JUMPDEST PUSH1 0x0 DUP3 ADD CALLDATALOAD PUSH8 0xFFFFFFFFFFFFFFFF DUP2 GT ISZERO PUSH2 0x91D JUMPI PUSH2 0x91C PUSH2 0x662 JUMP JUMPDEST JUMPDEST PUSH2 0x929 DUP5 DUP3 DUP6 ADD PUSH2 0x8BB JUMP JUMPDEST SWAP2 POP POP SWAP3 SWAP2 POP POP JUMP JUMPDEST PUSH1 0x0 DUP2 MLOAD SWAP1 POP SWAP2 SWAP1 POP JUMP JUMPDEST PUSH1 0x0 DUP3 DUP3 MSTORE PUSH1 0x20 DUP3 ADD SWAP1 POP SWAP3 SWAP2 POP POP JUMP JUMPDEST PUSH1 0x0 DUP2 SWAP1 POP PUSH1 0x20 DUP3 ADD SWAP1 POP SWAP2 SWAP1 POP JUMP JUMPDEST PUSH1 0x0 DUP3 DUP3 MSTORE PUSH1 0x20 DUP3 ADD SWAP1 POP SWAP3 SWAP2 POP POP JUMP JUMPDEST PUSH1 0x0 PUSH2 0x97A DUP3 PUSH2 0x6F4 JUMP JUMPDEST PUSH2 0x984 DUP2 DUP6 PUSH2 0x95E JUMP JUMPDEST SWAP4 POP PUSH2 0x994 DUP2 DUP6 PUSH1 0x20 DUP7 ADD PUSH2 0x710 JUMP JUMPDEST PUSH2 0x99D DUP2 PUSH2 0x73A JUMP JUMPDEST DUP5 ADD SWAP2 POP POP SWAP3 SWAP2 POP POP JUMP JUMPDEST PUSH2 0x9B1 DUP2 PUSH2 0x667 JUMP JUMPDEST DUP3 MSTORE POP POP JUMP JUMPDEST PUSH1 0x0 PUSH1 0x40 DUP4 ADD PUSH1 0x0 DUP4 ADD MLOAD DUP5 DUP3 SUB PUSH1 0x0 DUP7 ADD MSTORE PUSH2 0x9D4 DUP3 DUP3 PUSH2 0x96F JUMP JUMPDEST SWAP2 POP POP PUSH1 0x20 DUP4 ADD MLOAD PUSH2 0x9E9 PUSH1 0x20 DUP7 ADD DUP3 PUSH2 0x9A8 JUMP JUMPDEST POP DUP1 SWAP2 POP POP SWAP3 SWAP2 POP POP JUMP JUMPDEST PUSH1 0x0 PUSH2 0xA00 DUP4 DUP4 PUSH2 0x9B7 JUMP JUMPDEST SWAP1 POP SWAP3 SWAP2 POP POP JUMP JUMPDEST PUSH1 0x0 PUSH1 0x20 DUP3 ADD SWAP1 POP SWAP2 SWAP1 POP JUMP JUMPDEST PUSH1 0x0 PUSH2 0xA20 DUP3 PUSH2 0x932 JUMP JUMPDEST PUSH2 0xA2A DUP2 DUP6 PUSH2 0x93D JUMP JUMPDEST SWAP4 POP DUP4 PUSH1 0x20 DUP3 MUL DUP6 ADD PUSH2 0xA3C DUP6 PUSH2 0x94E JUMP JUMPDEST DUP1 PUSH1 0x0 JUMPDEST DUP6 DUP2 LT ISZERO PUSH2 0xA78 JUMPI DUP5 DUP5 SUB DUP10 MSTORE DUP2 MLOAD PUSH2 0xA59 DUP6 DUP3 PUSH2 0x9F4 JUMP JUMPDEST SWAP5 POP PUSH2 0xA64 DUP4 PUSH2 0xA08 JUMP JUMPDEST SWAP3 POP PUSH1 0x20 DUP11 ADD SWAP10 POP POP PUSH1 0x1 DUP2 ADD SWAP1 POP PUSH2 0xA40 JUMP JUMPDEST POP DUP3 SWAP8 POP DUP8 SWAP6 POP POP POP POP POP POP SWAP3 SWAP2 POP POP JUMP JUMPDEST PUSH1 0x0 PUSH1 0x20 DUP3 ADD SWAP1 POP DUP2 DUP2 SUB PUSH1 0x0 DUP4 ADD MSTORE PUSH2 0xAA4 DUP2 DUP5 PUSH2 0xA15 JUMP JUMPDEST SWAP1 POP SWAP3 SWAP2 POP POP JUMP JUMPDEST PUSH1 0x0 DUP2 ISZERO ISZERO SWAP1 POP SWAP2 SWAP1 POP JUMP JUMPDEST PUSH2 0xAC1 DUP2 PUSH2 0xAAC JUMP JUMPDEST DUP3 MSTORE POP POP JUMP JUMPDEST PUSH1 0x0 PUSH1 0x20 DUP3 ADD SWAP1 POP PUSH2 0xADC PUSH1 0x0 DUP4 ADD DUP5 PUSH2 0xAB8 JUMP JUMPDEST SWAP3 SWAP2 POP POP JUMP JUMPDEST PUSH1 0x0 PUSH20 0xFFFFFFFFFFFFFFFFFFFFFFFFFFFFFFFFFFFFFFFF DUP3 AND SWAP1 POP SWAP2 SWAP1 POP JUMP JUMPDEST PUSH1 0x0 PUSH2 0xB0D DUP3 PUSH2 0xAE2 JUMP JUMPDEST SWAP1 POP SWAP2 SWAP1 POP JUMP JUMPDEST PUSH2 0xB1D DUP2 PUSH2 0xB02 JUMP JUMPDEST DUP2 EQ PUSH2 0xB28 JUMPI PUSH1 0x0 DUP1 REVERT JUMPDEST POP JUMP JUMPDEST PUSH1 0x0 DUP2 CALLDATALOAD SWAP1 POP PUSH2 0xB3A DUP2 PUSH2 0xB14 JUMP JUMPDEST SWAP3 SWAP2 POP POP JUMP JUMPDEST PUSH1 0x0 PUSH1 0x20 DUP3 DUP5 SUB SLT ISZERO PUSH2 0xB56 JUMPI PUSH2 0xB55 PUSH2 0x65D JUMP JUMPDEST JUMPDEST PUSH1 0x0 PUSH2 0xB64 DUP5 DUP3 DUP6 ADD PUSH2 0xB2B JUMP JUMPDEST SWAP2 POP POP SWAP3 SWAP2 POP POP JUMP JUMPDEST PUSH32 0x596F75206861766520616C726561647920766F7465642E000000000000000000 PUSH1 0x0 DUP3 ADD MSTORE POP JUMP JUMPDEST PUSH1 0x0 PUSH2 0xBA3 PUSH1 0x17 DUP4 PUSH2 0x6FF JUMP JUMPDEST SWAP2 POP PUSH2 0xBAE DUP3 PUSH2 0xB6D JUMP JUMPDEST PUSH1 0x20 DUP3 ADD SWAP1 POP SWAP2 SWAP1 POP JUMP JUMPDEST PUSH1 0x0 PUSH1 0x20 DUP3 ADD SWAP1 POP DUP2 DUP2 SUB PUSH1 0x0 DUP4 ADD MSTORE PUSH2 0xBD2 DUP2 PUSH2 0xB96 JUMP JUMPDEST SWAP1 POP SWAP2 SWAP1 POP JUMP JUMPDEST PUSH32 0x496E76616C69642063616E64696461746520696E6465782E0000000000000000 PUSH1 0x0 DUP3 ADD MSTORE POP JUMP JUMPDEST PUSH1 0x0 PUSH2 0xC0F PUSH1 0x18 DUP4 PUSH2 0x6FF JUMP JUMPDEST SWAP2 POP PUSH2 0xC1A DUP3 PUSH2 0xBD9 JUMP JUMPDEST PUSH1 0x20 DUP3 ADD SWAP1 POP SWAP2 SWAP1 POP JUMP JUMPDEST PUSH1 0x0 PUSH1 0x20 DUP3 ADD SWAP1 POP DUP2 DUP2 SUB PUSH1 0x0 DUP4 ADD MSTORE PUSH2 0xC3E DUP2 PUSH2 0xC02 JUMP JUMPDEST SWAP1 POP SWAP2 SWAP1 POP JUMP JUMPDEST PUSH32 0x4E487B7100000000000000000000000000000000000000000000000000000000 PUSH1 0x0 MSTORE PUSH1 0x32 PUSH1 0x4 MSTORE PUSH1 0x24 PUSH1 0x0 REVERT JUMPDEST PUSH32 0x4E487B7100000000000000000000000000000000000000000000000000000000 PUSH1 0x0 MSTORE PUSH1 0x11 PUSH1 0x4 MSTORE PUSH1 0x24 PUSH1 0x0 REVERT JUMPDEST PUSH1 0x0 PUSH2 0xCAE DUP3 PUSH2 0x667 JUMP JUMPDEST SWAP2 POP PUSH32 0xFFFFFFFFFFFFFFFFFFFFFFFFFFFFFFFFFFFFFFFFFFFFFFFFFFFFFFFFFFFFFFFF DUP3 SUB PUSH2 0xCE0 JUMPI PUSH2 0xCDF PUSH2 0xC74 JUMP JUMPDEST JUMPDEST PUSH1 0x1 DUP3 ADD SWAP1 POP SWAP2 SWAP1 POP JUMP JUMPDEST PUSH32 0x4E487B7100000000000000000000000000000000000000000000000000000000 PUSH1 0x0 MSTORE PUSH1 0x22 PUSH1 0x4 MSTORE PUSH1 0x24 PUSH1 0x0 REVERT JUMPDEST PUSH1 0x0 PUSH1 0x2 DUP3 DIV SWAP1 POP PUSH1 0x1 DUP3 AND DUP1 PUSH2 0xD32 JUMPI PUSH1 0x7F DUP3 AND SWAP2 POP JUMPDEST PUSH1 0x20 DUP3 LT DUP2 SUB PUSH2 0xD45 JUMPI PUSH2 0xD44 PUSH2 0xCEB JUMP JUMPDEST JUMPDEST POP SWAP2 SWAP1 POP JUMP JUMPDEST PUSH1 0x0 DUP2 SWAP1 POP DUP2 PUSH1 0x0 MSTORE PUSH1 0x20 PUSH1 0x0 KECCAK256 SWAP1 POP SWAP2 SWAP1 POP JUMP JUMPDEST PUSH1 0x0 PUSH1 0x20 PUSH1 0x1F DUP4 ADD DIV SWAP1 POP SWAP2 SWAP1 POP JUMP JUMPDEST PUSH1 0x0 DUP3 DUP3 SHL SWAP1 POP SWAP3 SWAP2 POP POP JUMP JUMPDEST PUSH1 0x0 PUSH1 0x8 DUP4 MUL PUSH2 0xDAD PUSH32 0xFFFFFFFFFFFFFFFFFFFFFFFFFFFFFFFFFFFFFFFFFFFFFFFFFFFFFFFFFFFFFFFF DUP3 PUSH2 0xD70 JUMP JUMPDEST PUSH2 0xDB7 DUP7 DUP4 PUSH2 0xD70 JUMP JUMPDEST SWAP6 POP DUP1 NOT DUP5 AND SWAP4 POP DUP1 DUP7 AND DUP5 OR SWAP3 POP POP POP SWAP4 SWAP3 POP POP POP JUMP JUMPDEST PUSH1 0x0 DUP2 SWAP1 POP SWAP2 SWAP1 POP JUMP JUMPDEST PUSH1 0x0 PUSH2 0xDF4 PUSH2 0xDEF PUSH2 0xDEA DUP5 PUSH2 0x667 JUMP JUMPDEST PUSH2 0xDCF JUMP JUMPDEST PUSH2 0x667 JUMP JUMPDEST SWAP1 POP SWAP2 SWAP1 POP JUMP JUMPDEST PUSH1 0x0 DUP2 SWAP1 POP SWAP2 SWAP1 POP JUMP JUMPDEST PUSH2 0xE0E DUP4 PUSH2 0xDD9 JUMP JUMPDEST PUSH2 0xE22 PUSH2 0xE1A DUP3 PUSH2 0xDFB JUMP JUMPDEST DUP5 DUP5 SLOAD PUSH2 0xD7D JUMP JUMPDEST DUP3 SSTORE POP POP POP POP JUMP JUMPDEST PUSH1 0x0 SWAP1 JUMP JUMPDEST PUSH2 0xE37 PUSH2 0xE2A JUMP JUMPDEST PUSH2 0xE42 DUP2 DUP5 DUP5 PUSH2 0xE05 JUMP JUMPDEST POP POP POP JUMP JUMPDEST JUMPDEST DUP2 DUP2 LT ISZERO PUSH2 0xE66 JUMPI PUSH2 0xE5B PUSH1 0x0 DUP3 PUSH2 0xE2F JUMP JUMPDEST PUSH1 0x1 DUP2 ADD SWAP1 POP PUSH2 0xE48 JUMP JUMPDEST POP POP JUMP JUMPDEST PUSH1 0x1F DUP3 GT ISZERO PUSH2 0xEAB JUMPI PUSH2 0xE7C DUP2 PUSH2 0xD4B JUMP JUMPDEST PUSH2 0xE85 DUP5 PUSH2 0xD60 JUMP JUMPDEST DUP2 ADD PUSH1 0x20 DUP6 LT ISZERO PUSH2 0xE94 JUMPI DUP2 SWAP1 POP JUMPDEST PUSH2 0xEA8 PUSH2 0xEA0 DUP6 PUSH2 0xD60 JUMP JUMPDEST DUP4 ADD DUP3 PUSH2 0xE47 JUMP JUMPDEST POP POP JUMPDEST POP POP POP JUMP JUMPDEST PUSH1 0x0 DUP3 DUP3 SHR SWAP1 POP SWAP3 SWAP2 POP POP JUMP JUMPDEST PUSH1 0x0 PUSH2 0xECE PUSH1 0x0 NOT DUP5 PUSH1 0x8 MUL PUSH2 0xEB0 JUMP JUMPDEST NOT DUP1 DUP4 AND SWAP2 POP POP SWAP3 SWAP2 POP POP JUMP JUMPDEST PUSH1 0x0 PUSH2 0xEE7 DUP4 DUP4 PUSH2 0xEBD JUMP JUMPDEST SWAP2 POP DUP3 PUSH1 0x2 MUL DUP3 OR SWAP1 POP SWAP3 SWAP2 POP POP JUMP JUMPDEST PUSH2 0xF00 DUP3 PUSH2 0x6F4 JUMP JUMPDEST PUSH8 0xFFFFFFFFFFFFFFFF DUP2 GT ISZERO PUSH2 0xF19 JUMPI PUSH2 0xF18 PUSH2 0x7BE JUMP JUMPDEST JUMPDEST PUSH2 0xF23 DUP3 SLOAD PUSH2 0xD1A JUMP JUMPDEST PUSH2 0xF2E DUP3 DUP3 DUP6 PUSH2 0xE6A JUMP JUMPDEST PUSH1 0x0 PUSH1 0x20 SWAP1 POP PUSH1 0x1F DUP4 GT PUSH1 0x1 DUP2 EQ PUSH2 0xF61 JUMPI PUSH1 0x0 DUP5 ISZERO PUSH2 0xF4F JUMPI DUP3 DUP8 ADD MLOAD SWAP1 POP JUMPDEST PUSH2 0xF59 DUP6 DUP3 PUSH2 0xEDB JUMP JUMPDEST DUP7 SSTORE POP PUSH2 0xFC1 JUMP JUMPDEST PUSH1 0x1F NOT DUP5 AND PUSH2 0xF6F DUP7 PUSH2 0xD4B JUMP JUMPDEST PUSH1 0x0 JUMPDEST DUP3 DUP2 LT ISZERO PUSH2 0xF97 JUMPI DUP5 DUP10 ADD MLOAD DUP3 SSTORE PUSH1 0x1 DUP3 ADD SWAP2 POP PUSH1 0x20 DUP6 ADD SWAP5 POP PUSH1 0x20 DUP2 ADD SWAP1 POP PUSH2 0xF72 JUMP JUMPDEST DUP7 DUP4 LT ISZERO PUSH2 0xFB4 JUMPI DUP5 DUP10 ADD MLOAD PUSH2 0xFB0 PUSH1 0x1F DUP10 AND DUP3 PUSH2 0xEBD JUMP JUMPDEST DUP4 SSTORE POP JUMPDEST PUSH1 0x1 PUSH1 0x2 DUP9 MUL ADD DUP9 SSTORE POP POP POP JUMPDEST POP POP POP POP POP POP JUMP JUMPDEST PUSH32 0x566F74696E6720686173206E6F742073746172746564207965742E0000000000 PUSH1 0x0 DUP3 ADD MSTORE POP JUMP JUMPDEST PUSH1 0x0 PUSH2 0xFFF PUSH1 0x1B DUP4 PUSH2 0x6FF JUMP JUMPDEST SWAP2 POP PUSH2 0x100A DUP3 PUSH2 0xFC9 JUMP JUMPDEST PUSH1 0x20 DUP3 ADD SWAP1 POP SWAP2 SWAP1 POP JUMP JUMPDEST PUSH1 0x0 PUSH1 0x20 DUP3 ADD SWAP1 POP DUP2 DUP2 SUB PUSH1 0x0 DUP4 ADD MSTORE PUSH2 0x102E DUP2 PUSH2 0xFF2 JUMP JUMPDEST SWAP1 POP SWAP2 SWAP1 POP JUMP JUMPDEST PUSH1 0x0 PUSH2 0x1040 DUP3 PUSH2 0x667 JUMP JUMPDEST SWAP2 POP PUSH2 0x104B DUP4 PUSH2 0x667 JUMP JUMPDEST SWAP3 POP DUP3 DUP3 SUB SWAP1 POP DUP2 DUP2 GT ISZERO PUSH2 0x1063 JUMPI PUSH2 0x1062 PUSH2 0xC74 JUMP JUMPDEST JUMPDEST SWAP3 SWAP2 POP POP JUMP INVALID LOG2 PUSH5 0x6970667358 0x22 SLT KECCAK256 DUP2 PUSH16 0x2FA2CB02339B6D12E31190CB6368CA1E PUSH13 0x2778FE3B527B051EC4C9BC19BB PUSH5 0x736F6C6343 STOP ADDMOD SLT STOP CALLER "},"methodIdentifiers":{"addCandidate(string)":"462e91ec","candidates(uint256)":"3477ee2e","getAllVotesOfCandiates()":"4d6bda5f","getRemainingTime()":"efb98bcf","getVotingStatus()":"581c281c","vote(uint256)":"0121b93f","voters(address)":"a3ec138d","votingEnd()":"85a38635","votingStart()":"101158af"}}}}}