{
  "_format": "hh-sol-artifact-1",
  "contractName": "Voting",
  "sourceName": "contracts/Voting.sol",
  "abi": [
    {
      "inputs": [
        {
          "internalType": "string[]",
          "name": "_candidateNames",
          "type": "string[]"
        },
        {
          "internalType": "uint256",
          "name": "_durationInMinutes",
          "type": "uint256"
        }
      ],
      "stateMutability": "nonpayable",
      "type": "constructor"
    },
    {
      "inputs": [
        {
          "internalType": "string",
          "name": "_name",
          "type": "string"
        }
      ],
      "name": "addCandidate",
      "outputs": [],
      "stateMutability": "nonpayable",
      "type": "function"
    },
    {
      "inputs": [
        {
          "internalType": "uint256",
          "name": "",
          "type": "uint256"
        }
      ],
      "name": "candidates",
      "outputs": [
        {
          "internalType": "string",
          "name": "name",
          "type": "string"
        },
        {
          "internalType": "uint256",
          "name": "voteCount",
          "type": "uint256"
        }
      ],
      "stateMutability": "view",
      "type": "function"
    },
    {
      "inputs": [],
      "name": "getAllVotesOfCandiates",
      "outputs": [
        {
          "components": [
            {
              "internalType": "string",
              "name": "name",
              "type": "string"
            },
            {
              "internalType": "uint256",
              "name": "voteCount",
              "type": "uint256"
            }
          ],
          "internalType": "struct Voting.Candidate[]",
          "name": "",
          "type": "tuple[]"
        }
      ],
      "stateMutability": "view",
      "type": "function"
    },
    {
      "inputs": [],
      "name": "getRemainingTime",
      "outputs": [
        {
          "internalType": "uint256",
          "name": "",
          "type": "uint256"
        }
      ],
      "stateMutability": "view",
      "type": "function"
    },
    {
      "inputs": [],
      "name": "getVotingStatus",
      "outputs": [
        {
          "internalType": "bool",
          "name": "",
          "type": "bool"
        }
      ],
      "stateMutability": "view",
      "type": "function"
    },
    {
      "inputs": [
        {
          "internalType": "uint256",
          "name": "_candidateIndex",
          "type": "uint256"
        }
      ],
      "name": "vote",
      "outputs": [],
      "stateMutability": "nonpayable",
      "type": "function"
    },
    {
      "inputs": [
        {
          "internalType": "address",
          "name": "",
          "type": "address"
        }
      ],
      "name": "voters",
      "outputs": [
        {
          "internalType": "bool",
          "name": "",
          "type": "bool"
        }
      ],
      "stateMutability": "view",
      "type": "function"
    },
    {
      "inputs": [],
      "name": "votingEnd",
      "outputs": [
        {
          "internalType": "uint256",
          "name": "",
          "type": "uint256"
        }
      ],
      "stateMutability": "view",
      "type": "function"
    },
    {
      "inputs": [],
      "name": "votingStart",
      "outputs": [
        {
          "internalType": "uint256",
          "name": "",
          "type": "uint256"
        }
      ],
      "stateMutability": "view",
      "type": "function"
    }
  ],
  "bytecode": "0x60806040523480156200001157600080fd5b506040516200198738038062001987833981810160405281019062000037919062000419565b60005b8251811015620000dc57600060405180604001604052808584815181106200006757620000666200047f565b5b60200260200101518152602001600081525090806001815401808255809150506001900390600052602060002090600202016000909190919091506000820151816000019081620000b99190620006ef565b506020820151816001015550508080620000d39062000805565b9150506200003a565b5033600160006101000a81548173ffffffffffffffffffffffffffffffffffffffff021916908373ffffffffffffffffffffffffffffffffffffffff16021790555042600381905550603c8162000134919062000852565b426200014191906200089d565b6004819055505050620008d8565b6000604051905090565b600080fd5b600080fd5b600080fd5b6000601f19601f8301169050919050565b7f4e487b7100000000000000000000000000000000000000000000000000000000600052604160045260246000fd5b620001b38262000168565b810181811067ffffffffffffffff82111715620001d557620001d462000179565b5b80604052505050565b6000620001ea6200014f565b9050620001f88282620001a8565b919050565b600067ffffffffffffffff8211156200021b576200021a62000179565b5b602082029050602081019050919050565b600080fd5b600080fd5b600067ffffffffffffffff82111562000254576200025362000179565b5b6200025f8262000168565b9050602081019050919050565b60005b838110156200028c5780820151818401526020810190506200026f565b60008484015250505050565b6000620002af620002a98462000236565b620001de565b905082815260208101848484011115620002ce57620002cd62000231565b5b620002db8482856200026c565b509392505050565b600082601f830112620002fb57620002fa62000163565b5b81516200030d84826020860162000298565b91505092915050565b60006200032d6200032784620001fd565b620001de565b905080838252602082019050602084028301858111156200035357620003526200022c565b5b835b81811015620003a157805167ffffffffffffffff8111156200037c576200037b62000163565b5b8086016200038b8982620002e3565b8552602085019450505060208101905062000355565b5050509392505050565b600082601f830112620003c357620003c262000163565b5b8151620003d584826020860162000316565b91505092915050565b6000819050919050565b620003f381620003de565b8114620003ff57600080fd5b50565b6000815190506200041381620003e8565b92915050565b6000806040838503121562000433576200043262000159565b5b600083015167ffffffffffffffff8111156200045457620004536200015e565b5b6200046285828601620003ab565b9250506020620004758582860162000402565b9150509250929050565b7f4e487b7100000000000000000000000000000000000000000000000000000000600052603260045260246000fd5b600081519050919050565b7f4e487b7100000000000000000000000000000000000000000000000000000000600052602260045260246000fd5b600060028204905060018216806200050157607f821691505b602082108103620005175762000516620004b9565b5b50919050565b60008190508160005260206000209050919050565b60006020601f8301049050919050565b600082821b905092915050565b600060088302620005817fffffffffffffffffffffffffffffffffffffffffffffffffffffffffffffffff8262000542565b6200058d868362000542565b95508019841693508086168417925050509392505050565b6000819050919050565b6000620005d0620005ca620005c484620003de565b620005a5565b620003de565b9050919050565b6000819050919050565b620005ec83620005af565b62000604620005fb82620005d7565b8484546200054f565b825550505050565b600090565b6200061b6200060c565b62000628818484620005e1565b505050565b5b8181101562000650576200064460008262000611565b6001810190506200062e565b5050565b601f8211156200069f5762000669816200051d565b620006748462000532565b8101602085101562000684578190505b6200069c620006938562000532565b8301826200062d565b50505b505050565b600082821c905092915050565b6000620006c460001984600802620006a4565b1980831691505092915050565b6000620006df8383620006b1565b9150826002028217905092915050565b620006fa82620004ae565b67ffffffffffffffff81111562000716576200071562000179565b5b620007228254620004e8565b6200072f82828562000654565b600060209050601f83116001811462000767576000841562000752578287015190505b6200075e8582620006d1565b865550620007ce565b601f19841662000777866200051d565b60005b82811015620007a1578489015182556001820191506020850194506020810190506200077a565b86831015620007c15784890151620007bd601f891682620006b1565b8355505b6001600288020188555050505b505050505050565b7f4e487b7100000000000000000000000000000000000000000000000000000000600052601160045260246000fd5b60006200081282620003de565b91507fffffffffffffffffffffffffffffffffffffffffffffffffffffffffffffffff8203620008475762000846620007d6565b5b600182019050919050565b60006200085f82620003de565b91506200086c83620003de565b92508282026200087c81620003de565b91508282048414831517620008965762000895620007d6565b5b5092915050565b6000620008aa82620003de565b9150620008b783620003de565b9250828201905080821115620008d257620008d1620007d6565b5b92915050565b61109f80620008e86000396000f3fe608060405234801561001057600080fd5b50600436106100935760003560e01c80634d6bda5f116100665780634d6bda5f1461011f578063581c281c1461013d57806385a386351461015b578063a3ec138d14610179578063efb98bcf146101a957610093565b80630121b93f14610098578063101158af146100b45780633477ee2e146100d2578063462e91ec14610103575b600080fd5b6100b260048036038101906100ad919061069d565b6101c7565b005b6100bc610329565b6040516100c991906106d9565b60405180910390f35b6100ec60048036038101906100e7919061069d565b61032f565b6040516100fa929190610784565b60405180910390f35b61011d600480360381019061011891906108e9565b6103eb565b005b6101276104ab565b6040516101349190610a8a565b60405180910390f35b6101456105a6565b6040516101529190610ac7565b60405180910390f35b6101636105c0565b60405161017091906106d9565b60405180910390f35b610193600480360381019061018e9190610b40565b6105c6565b6040516101a09190610ac7565b60405180910390f35b6101b16105e6565b6040516101be91906106d9565b60405180910390f35b600260003373ffffffffffffffffffffffffffffffffffffffff1673ffffffffffffffffffffffffffffffffffffffff16815260200190815260200160002060009054906101000a900460ff1615610254576040517f08c379a000000000000000000000000000000000000000000000000000000000815260040161024b90610bb9565b60405180910390fd5b600080549050811061029b576040517f08c379a000000000000000000000000000000000000000000000000000000000815260040161029290610c25565b60405180910390fd5b600081815481106102af576102ae610c45565b5b906000526020600020906002020160010160008154809291906102d190610ca3565b919050555060011515600260003373ffffffffffffffffffffffffffffffffffffffff1673ffffffffffffffffffffffffffffffffffffffff16815260200190815260200160002060009054906101000a9050505050565b60035481565b6000818154811061033f57600080fd5b906000526020600020906002020160009150905080600001805461036290610d1a565b80601f016020809104026020016040519081016040528092919081815260200182805461038e90610d1a565b80156103db5780601f106103b0576101008083540402835291602001916103db565b820191906000526020600020905b8154815290600101906020018083116103be57829003601f168201915b5050505050908060010154905082565b600160009054906101000a900473ffffffffffffffffffffffffffffffffffffffff1673ffffffffffffffffffffffffffffffffffffffff163373ffffffffffffffffffffffffffffffffffffffff161461044557600080fd5b6000604051806040016040528083815260200160008152509080600181540180825580915050600190039060005260206000209060020201600090919091909150600082015181600001908161049b9190610ef7565b5060208201518160010155505050565b60606000805480602002602001604051908101604052809291908181526020016000905b8282101561059d578382906000526020600020906002020160405180604001604052908160008201805461050290610d1a565b80601f016020809104026020016040519081016040528092919081815260200182805461052e90610d1a565b801561057b5780601f106105505761010080835404028352916020019161057b565b820191906000526020600020905b81548152906001019060200180831161055e57829003601f168201915b50505050508152602001600182015481525050815260200190600101906104cf565b50505050905090565b600060035442101580156105bb575060045442105b905090565b60045481565b60026020528060005260406000206000915054906101000a900460ff1681565b600060035442101561062d576040517f08c379a000000000000000000000000000000000000000000000000000000000815260040161062490611015565b60405180910390fd5b600454421061063f5760009050610650565b4260045461064d9190611035565b90505b90565b6000604051905090565b600080fd5b600080fd5b6000819050919050565b61067a81610667565b811461068557600080fd5b50565b60008135905061069781610671565b92915050565b6000602082840312156106b3576106b261065d565b5b60006106c184828501610688565b91505092915050565b6106d381610667565b82525050565b60006020820190506106ee60008301846106ca565b92915050565b600081519050919050565b600082825260208201905092915050565b60005b8381101561072e578082015181840152602081019050610713565b60008484015250505050565b6000601f19601f8301169050919050565b6000610756826106f4565b61076081856106ff565b9350610770818560208601610710565b6107798161073a565b840191505092915050565b6000604082019050818103600083015261079e818561074b565b90506107ad60208301846106ca565b9392505050565b600080fd5b600080fd5b7f4e487b7100000000000000000000000000000000000000000000000000000000600052604160045260246000fd5b6107f68261073a565b810181811067ffffffffffffffff82111715610815576108146107be565b5b80604052505050565b6000610828610653565b905061083482826107ed565b919050565b600067ffffffffffffffff821115610854576108536107be565b5b61085d8261073a565b9050602081019050919050565b82818337600083830152505050565b600061088c61088784610839565b61081e565b9050828152602081018484840111156108a8576108a76107b9565b5b6108b384828561086a565b509392505050565b600082601f8301126108d0576108cf6107b4565b5b81356108e0848260208601610879565b91505092915050565b6000602082840312156108ff576108fe61065d565b5b600082013567ffffffffffffffff81111561091d5761091c610662565b5b610929848285016108bb565b91505092915050565b600081519050919050565b600082825260208201905092915050565b6000819050602082019050919050565b600082825260208201905092915050565b600061097a826106f4565b610984818561095e565b9350610994818560208601610710565b61099d8161073a565b840191505092915050565b6109b181610667565b82525050565b600060408301600083015184820360008601526109d4828261096f565b91505060208301516109e960208601826109a8565b508091505092915050565b6000610a0083836109b7565b905092915050565b6000602082019050919050565b6000610a2082610932565b610a2a818561093d565b935083602082028501610a3c8561094e565b8060005b85811015610a785784840389528151610a5985826109f4565b9450610a6483610a08565b925060208a01995050600181019050610a40565b50829750879550505050505092915050565b60006020820190508181036000830152610aa48184610a15565b905092915050565b60008115159050919050565b610ac181610aac565b82525050565b6000602082019050610adc6000830184610ab8565b92915050565b600073ffffffffffffffffffffffffffffffffffffffff82169050919050565b6000610b0d82610ae2565b9050919050565b610b1d81610b02565b8114610b2857600080fd5b50565b600081359050610b3a81610b14565b92915050565b600060208284031215610b5657610b5561065d565b5b6000610b6484828501610b2b565b91505092915050565b7f596f75206861766520616c726561647920766f7465642e000000000000000000600082015250565b6000610ba36017836106ff565b9150610bae82610b6d565b602082019050919050565b60006020820190508181036000830152610bd281610b96565b9050919050565b7f496e76616c69642063616e64696461746520696e6465782e0000000000000000600082015250565b6000610c0f6018836106ff565b9150610c1a82610bd9565b602082019050919050565b60006020820190508181036000830152610c3e81610c02565b9050919050565b7f4e487b7100000000000000000000000000000000000000000000000000000000600052603260045260246000fd5b7f4e487b7100000000000000000000000000000000000000000000000000000000600052601160045260246000fd5b6000610cae82610667565b91507fffffffffffffffffffffffffffffffffffffffffffffffffffffffffffffffff8203610ce057610cdf610c74565b5b600182019050919050565b7f4e487b7100000000000000000000000000000000000000000000000000000000600052602260045260246000fd5b60006002820490506001821680610d3257607f821691505b602082108103610d4557610d44610ceb565b5b50919050565b60008190508160005260206000209050919050565b60006020601f8301049050919050565b600082821b905092915050565b600060088302610dad7fffffffffffffffffffffffffffffffffffffffffffffffffffffffffffffffff82610d70565b610db78683610d70565b95508019841693508086168417925050509392505050565b6000819050919050565b6000610df4610def610dea84610667565b610dcf565b610667565b9050919050565b6000819050919050565b610e0e83610dd9565b610e22610e1a82610dfb565b848454610d7d565b825550505050565b600090565b610e37610e2a565b610e42818484610e05565b505050565b5b81811015610e6657610e5b600082610e2f565b600181019050610e48565b5050565b601f821115610eab57610e7c81610d4b565b610e8584610d60565b81016020851015610e94578190505b610ea8610ea085610d60565b830182610e47565b50505b505050565b600082821c905092915050565b6000610ece60001984600802610eb0565b1980831691505092915050565b6000610ee78383610ebd565b9150826002028217905092915050565b610f00826106f4565b67ffffffffffffffff811115610f1957610f186107be565b5b610f238254610d1a565b610f2e828285610e6a565b600060209050601f831160018114610f615760008415610f4f578287015190505b610f598582610edb565b865550610fc1565b601f198416610f6f86610d4b565b60005b82811015610f9757848901518255600182019150602085019450602081019050610f72565b86831015610fb45784890151610fb0601f891682610ebd565b8355505b6001600288020188555050505b505050505050565b7f566f74696e6720686173206e6f742073746172746564207965742e0000000000600082015250565b6000610fff601b836106ff565b915061100a82610fc9565b602082019050919050565b6000602082019050818103600083015261102e81610ff2565b9050919050565b600061104082610667565b915061104b83610667565b925082820390508181111561106357611062610c74565b5b9291505056fea2646970667358221220816f2fa2cb02339b6d12e31190cb6368ca1e6c2778fe3b527b051ec4c9bc19bb64736f6c63430008120033",
  "linkReferences": {},
  "deployedLinkReferences": {}
}